:100000000C9447050C94F31A0C94CC1A0C946F05BD
:100010000C946F050C946F050C946F050C946F0590
:100020000C946F050C946F050C946F050C946F0580
:100030000C946F050C946F050C946F050C946F0570
:100040000C94821A0C946F050C94401B0C941A1B90
:100050000C946F050C946F050C946F050C946F0550
:100060000C94721B0C946F0500000000003E5B4F67
:100070005B3E3E6B4F6B3E1C3E7C3E1C183C7E3C08
:10008000181C577D571C1C5E7F5E1C00183C180016
:10009000FFE7C3E7FF0018241800FFE7DBE7FF30A6
:1000A000483A060E2629792926407F050507407F14
:1000B00005253F5A3CE73C5A7F3E1C1C08081C1C87
:1000C0003E7F14227F22145F5F005F5F06097F017D
:1000D0007F006689956A606060606094A2FFA29468
:1000E00008047E040810207E201008082A1C080836
:1000F0001C2A08081E101010100C1E0C1E0C303884
:100100003E3830060E3E0E06000000000000005F84
:1001100000000007000700147F147F14242A7F2AA0
:100120001223130864623649562050000807030062
:10013000001C2241000041221C002A1C7F1C2A08AE
:10014000083E080800807030000808080808000011
:1001500060600020100804023E5149453E00427F85
:10016000400072494949462141494D331814127FD4
:100170001027454545393C4A494931412111090774
:100180003649494936464949291E000014000000F5
:1001900040340000000814224114141414140041C7
:1001A00022140802015909063E415D594E7C121184
:1001B000127C7F494949363E414141227F414141BC
:1001C0003E7F494949417F090909013E4141517337
:1001D0007F0808087F00417F41002040413F017FA8
:1001E000081422417F404040407F021C027F7F0470
:1001F00008107F3E4141413E7F090909063E4151B9
:10020000215E7F09192946264949493203017F01A8
:10021000033F4040403F1F2040201F3F4038403FA9
:10022000631408146303047804036159494D4300BF
:100230007F4141410204081020004141417F0402F6
:10024000010204404040404000030708002054548D
:1002500078407F284444383844444428384444286B
:100260007F385454541800087E090218A4A49C78BE
:100270007F0804047800447D40002040403D007F1A
:100280001028440000417F40007C047804787C08FA
:100290000404783844444438FC18242418182424CE
:1002A00018FC7C08040408485454542404043F44B3
:1002B000243C4040207C1C2040201C3C4030403CE2
:1002C00044281028444C9090907C4464544C440042
:1002D00008364100000077000000413608000201A6
:1002E0000204023C2623263C1EA1A161123A404092
:1002F000207A38545455592155557941225454780F
:1003000042215554784020545579400C1E527212A7
:100310003955555559395454545939555454580030
:1003200000457C410002457D420001457C407D1234
:1003300011127DF0282528F07C5455450020545496
:100340007C547C0A097F4932494949323A44444441
:100350003A324A4848303A4141217A3A424020787C
:10036000009DA0A07D3D4242423D3D4040403D3C7D
:1003700024FF2424487E4943662B2FFC2F2BFF09A2
:1003800029F620C0887E0903205454794100004496
:100390007D413048484A32384040227A007A0A0A81
:1003A000727D0D19317D2629292F282629292926F4
:1003B00030484D4020380808080808080808382F39
:1003C00010C8ACBA2F102834FA00007B00000814C3
:1003D0002A142222142A14085500550055AA55AA99
:1003E00055AAFF55FF55FF000000FF00101010FF39
:1003F00000141414FF001010FF00FF1010F010F094
:10040000141414FC001414F700FF0000FF00FF1484
:1004100014F404FC141417101F10101F101F1414D0
:10042000141F00101010F0000000001F101010101A
:100430001F10101010F010000000FF10101010100E
:1004400010101010FF10000000FF140000FF00FF4C
:1004500000001F10170000FC04F4141417101714E8
:1004600014F404F40000FF00F7141414141414140A
:10047000F700F7141414171410101F101F1414147D
:10048000F4141010F010F000001F101F0000001FE7
:1004900014000000FC140000F010F01010FF10FF1A
:1004A000141414FF141010101F00000000F010FFAF
:1004B000FFFFFFFFF0F0F0F0F0FFFFFF0000000093
:1004C00000FFFF0F0F0F0F0F3844443844FC4A4A17
:1004D0004A347E02020606027E027E0263554941CC
:1004E000633844443C04407E201E2006027E020203
:1004F00099A5E7A5991C2A492A1C4C7201724C3017
:100500004A4D4D303048784830BC625A463D3E49ED
:100510004949007E0101017E2A2A2A2A2A44445F91
:10052000444440514A444040444A51400000FF0185
:1005300003E080FF000008086B6B08361236243693
:10054000060F090F060000181800000010100030F8
:1005500040FF0101001F01011E00191D1712003C80
:100560003C3C3C0000000000000103070F1F3F7FE0
:100570000080C0E0F0F8FCFEDB40A4A62EAF200017
:10058000A1C8D300408DAED580A800006000000057
:100590000000000000000000000000E0000000007B
:1005A00000000000000000000001E000000000006A
:1005B000000000000000000001F00000000000004A
:1005C0000000000000000003F00000000000000038
:1005D00000000000000007F0000000000000000024
:1005E000000000000007F80000000000000000000C
:1005F000000000000FF800000003C0007E000001B2
:10060000E0007F0FF800000003C000FE000001E0E2
:1006100000FFEFF800000003C000FE000001E00052
:10062000FFFFF800000003C000F00000000F007F93
:10063000FE7FC0000003C000F00000000F003FFE7E
:100640007FF83FF1FBCFFCFEF3BC3DEFE01FFE7FE8
:10065000FF7FFBFFDFFEFEFFBC3DEFE01FC6FFFF9D
:100660007FFBFFDFFEFEFFBC3DEFE00FE3C7FE7840
:100670007BC3DE1EF0FFBC3DEF0007FF87FC787BED
:10068000C3DE1EF0F83C3DEF0001FFFFF0007BC32E
:10069000C01EF0F03C3DEF0001F37FE03FFBC3CF15
:1006A000FEF0F03C3DEF0003E33F807FFBC3DFFE45
:1006B000F0F03C3DEF0007E73C00787BC3DE1EF026
:1006C000F03C3DEF0007FFBE00787BC3DE1EF0F07C
:1006D0003C3DEF0007FFFE00787BC3DE1EF0F03CE0
:1006E0003DEF000FFFFE007FFBFFDFFEF0F03FFD60
:1006F000EFE00FFFFF007FFBFFDFFEF0F03FFDEFBD
:10070000E00FF9FF003E79F9CF9EF0F01F3DE7E0E2
:100710001FF1FF0000000000000000000000001FAB
:1007200080FF007FFFFFFFFFFFFFFFFFFFE01C00D8
:100730007F007FFFFFFFFEB46D888D18E000001F73
:10074000007FFFFFFFFE95AD7DB577E000000F0055
:100750007FFFFFFFFEA5AD9D8D19E0000006007F25
:10076000FFFFFFFEB5ADEDB57EE00000000000012B
:100770008000000000000000000003800000000076
:10078000000000000007C0000000000000000000A2
:1007900007C00000000000000000000FC0000000C3
:1007A0000000000000001FE000000000000000004A
:1007B000001FE00000000000000000003FE000001B
:1007C000000000000000003FF000000000000000FA
:1007D00000007FF0000000000000001FF87FF00024
:1007E0000000000000003FFE7FF00000000000005D
:1007F000003FFF7FF0000000000000001FFFFBE053
:10080000000000000000000FFFF9FFC00000000022
:1008100000000FFFF9FFF800000000000007FFF1E3
:10082000FFFF00000000000003FC73FFFF800000DA
:1008300000000001FE3FFFFF80000000000000FFFD
:100840001E0FFF000000000000007FFE1FFC0000E4
:1008500000000000003FFFFFF80000000000000063
:100860000FDFFFE0000000000000001F19FFC000C4
:100870000000000000003F3CFF00000000000000FE
:10088000007E7CF800000000000000007FFE7C007D
:1008900000000000000000FFFFFC0000000000005E
:1008A0000000FFFFFE0000000000000000FFFFFE50
:1008B0000000000000000001FFEFFE00000000004B
:1008C000000001FFCFFE0000000000000003FF0752
:1008D000FE0000000000000003FC07FE0000000016
:1008E00000000003F003FE00000000000000018093
:1008F00000FE000000000000000000007E0000007C
:10090000000000000000003E0000000000000000A9
:1009100000000C000000000000078000FC00000345
:10092000C0000000078001FC000003C000000007B9
:100930008001FC000003C0000000078001E000000F
:10094000001E000000078001E00000001E007FE3A1
:10095000F79FF9FDE7787BDFC0FFF7FFBFFDFDFFE5
:10096000787BDFC0FFF7FFBFFDFDFF787BDFC0F0C6
:10097000F787BC3DE1FF787BDE00F0F787BC3DE107
:10098000F0787BDE0000F787803DE1E0787BDE00D9
:100990007FF7879FFDE1E0787BDE00FFF787BFFDF3
:1009A000E1E0787BDE00F0F787BC3DE1E0787BDEBC
:1009B00000F0F787BC3DE1E0787BDE00F0F787BC14
:1009C0003DE1E0787BDE00FFF7FFBFFDE1E07FFB6C
:1009D000DFC0FFF7FFBFFDE1E07FFBDFC07CF3F38B
:1009E0009F3DE1E03E7BCFC0000000000000000022
:1009F000000000FFFFFFFFFFFFFFFFFFFFC0FFFF43
:100A0000FFFFFD68DB111A31C0FFFFFFFFFD2B5A0E
:100A1000FB6AEFC0FFFFFFFFFD4B5B3B1A33C0FFDC
:100A2000FFFFFFFD6B5BDB6AFDC0000000002400E0
:100A300027002A0000000000250028002B000000ED
:100A40000000230026002900040404040404040414
:100A50000202020202020303030303030102040869
:100A60001020408001020408102001020408102018
:100A7000000000080002010000030407000000005D
:100A8000000000002200FF210000911C26221124FA
:100A90001FBECFEFD8E0DEBFCDBF23E0A6ECB1E0B4
:100AA00001C01D92AE38B207E1F711E0A0E0B1E05D
:100AB000ECE4FFE402C005900D92A63CB107D9F723
:100AC00015E0C6E4D5E004C02197FE010E9425246C
:100AD000C534D107C9F70E941C1D0C9499270C94AA
:100AE00000000895089591E09093930280939202FC
:100AF00010929902109298020895089580919A0296
:100B000090919B02891B990B089560913D0270E0C2
:100B1000762F6627CB0188279F7360913E02680F6E
:100B2000792F711D072E000C880B990B2DE0660F95
:100B3000771F881F991F2A95D1F720913C03309188
:100B40003D032130310539F4685E7E4683409109CA
:100B50000E9471220895685171498C4F9F4FF8CFC0
:100B6000833081F028F4813099F08230A9F0089523
:100B70008730A9F08830C9F08430B1F480918000CA
:100B80008F7D03C0809180008F77809380000895CF
:100B900084B58F7784BD089584B58F7DFBCF809118
:100BA000B0008F778093B00008958091B0008F7D62
:100BB000F9CFCF93DF93282F30E0F901E059F54FBB
:100BC0008491F901E45AF54FD491F901E85BF54FAE
:100BD000C491CC23A1F081110E94B005EC2FF0E06C
:100BE000EE0FFF1FE25CF54FA591B491EC91ED2360
:100BF00081E090E009F480E0DF91CF91089580E0FA
:100C000090E0FACF1F93CF93DF93282F30E0F901C4
:100C1000E059F54F8491F901E45AF54FD491F90167
:100C2000E85BF54FC491CC23A9F0162F81110E94E7
:100C3000B005EC2FF0E0EE0FFF1FEC5CF54FA59137
:100C4000B4918FB7F894EC91111108C0D095DE23C0
:100C5000DC938FBFDF91CF911F910895DE2BF8CFEA
:100C6000CF93DF9390E0FC01E45AF54F2491885B29
:100C7000954FFC0184918823D1F090E0880F991F53
:100C8000FC01E65DF54FA591B491FC01EC5CF54FDC
:100C9000C591D49161110EC09FB7F8948C91E22F49
:100CA000E0958E238C932881E223E8839FBFDF9118
:100CB000CF9108958FB7F894EC91E22BEC938FBF0E
:100CC000F6CF3FB7F8948091390290913A02A09103
:100CD0003B02B0913C0226B5A89B05C02F3F19F0FE
:100CE0000196A11DB11D3FBFBA2FA92F982F8827AC
:100CF000BC01CD01620F711D811D911D42E0660F87
:100D0000771F881F991F4A95D1F708958F929F9258
:100D1000AF92BF92CF92DF92EF92FF924B015C01B4
:100D20000E9461066B017C010E9461066C197D09BD
:100D30008E099F09683E734081059105A8F321E063
:100D4000821A9108A108B10888EEC80E83E0D81E67
:100D5000E11CF11C81149104A104B10429F7FF9056
:100D6000EF90DF90CF90BF90AF909F908F900895BD
:100D70000895AF92BF92CF92DF92EF92FF920F93BE
:100D80001F93CF93DF936C017B018B01040F151F21
:100D9000EB015E01AE18BF08C017D10759F0699189
:100DA000D601ED91FC910190F081E02DC6010995ED
:100DB000892B79F7C501DF91CF911F910F91FF909A
:100DC000EF90DF90CF90BF90AF900895FC01538DCE
:100DD000448D252F30E0842F90E0821B930B541715
:100DE00010F0CF96089501970895FC01918D828DA2
:100DF000981761F0A28DAE0FBF2FB11D5D968C913B
:100E0000928D9F5F9F73928F90E008958FEF9FEF79
:100E10000895FC01918D828D981731F0828DE80F35
:100E2000F11D858D90E008958FEF9FEF0895FC01EF
:100E3000918D228D892F90E0805C9F4F821B9109BC
:100E40008F73992708958CE992E00E94170721E09B
:100E5000892B09F420E0822F089580E090E0892B0F
:100E600029F00E94230781110C9400000895FC01D1
:100E7000A48DA80FB92FB11DA35ABF4F2C91848DFB
:100E800090E001968F739927848FA689B7892C9358
:100E9000A089B1898C91837080648C93938D848DAB
:100EA000981306C00288F389E02D80818F7D8083AE
:100EB0000895EF92FF920F931F93CF93DF93EC016E
:100EC00081E0888F9B8D8C8D98131AC0E889F989F1
:100ED000808185FF15C09FB7F894EE89FF896083F4
:100EE000E889F98980818370806480839FBF81E075
:100EF00090E0DF91CF911F910F91FF90EF900895B7
:100F0000F62E0B8D10E00F5F1F4F0F731127E02E91
:100F10008C8D8E110CC00FB607FCFACFE889F989C9
:100F2000808185FFF5CFCE010E943707F1CFEB8D91
:100F3000EC0FFD2FF11DE35AFF4FF0829FB7F8949D
:100F40000B8FEA89FB8980818062CFCFCF93DF93BB
:100F5000EC01888D8823B9F0AA89BB89E889F989D1
:100F60008C9185FD03C0808186FD0DC00FB607FC06
:100F7000F7CF8C9185FFF2CF808185FFEDCFCE0139
:100F80000E943707E9CFDF91CF910895EF92FF924A
:100F90000F931F93CF93DF93EC01EC80FD806E15D0
:100FA0007F050CF070C057FF04C0240F351F50E0C0
:100FB00040E08E819F81FA01E20FF31F8E179F0799
:100FC0001CF49C01241B350B121613060CF05BC09D
:100FD000922F842F8695869586958E9DD0018F9D24
:100FE000B00D11246A0F7B1FAF8DB8A1A60FB71FDC
:100FF000477049F188E0841B482F682F70E0FB019F
:10100000E059FA4FE491281708F063C0621B710998
:101010002FEF30E002C0359527956A95E2F7E2237D
:101020000130110539F0B0F10230110561F58C91F4
:10103000E82702C08C91E82BEC93941720F12C81C7
:101040003D81A20FB31FE92FE41BE83078F0023096
:10105000110521F58E2F9C9190959C932C813D81BB
:10106000A20FB31F88508830B0F7E770EE2359F015
:10107000F0E0E859FA4FE49101301105F9F010F170
:101080000230110519F1DF91CF911F910F91FF905F
:10109000EF900895E0958C91E823CECF81E0011583
:1010A000110509F480E081959E2F8C932C813D8160
:1010B000A20FB31F98509830C0F7D7CF8C91E82B70
:1010C000EC93E1CFE0958C91E823FACF8C91E8275F
:1010D000F7CF0130110509F4ADCFE0F20230110570
:1010E00009F4A5CFAE0DBF1DAECF0F931F93CF93C5
:1010F000DF9377FF04C0260F371F70E060E0DC014C
:101100001496CD91DC91FB01E20FF31FCE17DF07A0
:101110001CF49E01261B370B121613064CF5FA0120
:1011200057FD3796A3E0F595E795AA95E1F7EC9F73
:10113000D001ED9FB00DFC9FB00D11246A0F7B1FF5
:10114000DC015F96ED91FC91E60FF71F4770552784
:1011500081E090E001C0880F4A95EAF7482F0130FE
:10116000110559F0A8F02E0F3F1F02301105E1F0D4
:10117000DF91CF911F910F9108952E0F3F1FE2171E
:10118000F307B1F38191DF011197842B8C93F7CF93
:1011900080952E0F3F1FE217F30751F39191DF0166
:1011A000119798239C93F7CFE217F30709F38191E6
:1011B000DF01119784278C93F7CF0F931F93FA01C8
:1011C000DC0156964C9156974230E9F04330A1F13C
:1011D000413061F514964D915C91DA01AE1BBF0B65
:1011E000FD01E21BF30B77FD0BC0DC0116964D9160
:1011F0005C916417750724F4AB01BF010E94750868
:101200001F910F91089514964D915C91DA01A61BE0
:10121000B70BBD0161507109DC0116964D915C91CF
:10122000DA01AE1BBF0BFD01E21BF30B77FDE8CF2C
:10123000AF010E94C607E4CF16964D915C91DA018A
:10124000A61BB70BBD0161507109CDCF0F931F9342
:10125000FA01DC0156964C9156974230A9F0433082
:1012600091F1413019F514964D915C91DA01AE1B64
:10127000BF0BFD013197F7FD04C0AB01BF010E9418
:10128000C6071F910F91089514964D915C91DA0154
:10129000A61BB70BBD01DC0116964D915C91DA01DE
:1012A000AE1BBF0BFD013197621B730BF7FDE9CF3E
:1012B000DC0116964D915C91E417F50714F7AF0128
:1012C0000E947508DECF16964D915C91DA01A61B3F
:1012D000B70BBD01621B730BCECFFC0177FD64C061
:1012E00080859185681779070CF05EC057FD5CC05A
:1012F00082859385481759070CF056C0868982303D
:10130000B1F0833029F1813041F484819581841BCF
:10131000950BAB01BC01615071092130310509F118
:1013200008F443C02230310509F463C00895848174
:101330009581DC01A61BB70BBD0161507109868147
:101340009781DC01A41BB50BAD0141505109E5CFDC
:1013500086819781861B970BBA01AC0141505109D8
:10136000DCCFCA0157FD0796A3E095958795AA950E
:10137000E1F7A481B5818A9F90018B9F300D9A9FE0
:10138000300D1124620F731F078CF0A1E02DE60FC2
:10139000F71F4770552721E030E001C0220F4A9522
:1013A000EAF78081822B80830895CA0157FD079652
:1013B00033E0959587953A95E1F7A481B5818A9FA9
:1013C00090018B9F300D9A9F300D1124620F731F77
:1013D000078CF0A1E02DE60FF71F4770552781E03D
:1013E00090E001C0880F4A95EAF7809590818923A3
:1013F000DACFCA0157FD079623E0959587952A9580
:10140000E1F7A481B5818A9F90018B9F300D9A9F4F
:10141000300D1124620F731F078CF0A1E02DE60F31
:10142000F71F4770552721E030E001C0220F4A9591
:10143000EAF780818227B7CF08958EBD00000DB4F2
:1014400007FEFDCF8EB508958CBD9DBD089508950E
:10145000FC016370668B84819581268137816130C0
:1014600039F0633029F09187808733872287089588
:10147000318720879387828708952F923F924F92DA
:101480005F926F927F928F929F92AF92BF92CF9214
:10149000DF92EF92FF920F931F93CF93DF93CDB71D
:1014A000DEB76A970FB6F894DEBF0FBECDBF9A8F36
:1014B000898F7A8369834A01D22E18870F83370177
:1014C000BC2CDC0159962D913C915A972115310580
:1014D00009F015C118968D919C9119976817790795
:1014E0000CF0D7C11A968D919C91481759070CF0B2
:1014F000D0C14C2C512CB6E0CB9E600D711D112437
:101500007C876B87161617060CF0C3C1EA2DF0E036
:10151000FA87E98793E0EE0FFF1F9A95E1F7F88BC2
:10152000EF87CF01840F951F181619060CF0B1C173
:10153000A98DBA8D58968C91811104C0BFEABD1552
:1015400008F4D394A98DBA8DED91FC911197028482
:10155000F385E02DCD010995B5E0DB9EC001112496
:10156000E981FA81FC83EB83312C212C9C012859E1
:101570003F4F388F2F8B4A2D50E05E8B4D8BEF897C
:10158000F88DE20DF31D44919E828D82D12CC12CE9
:1015900069817A81620D731D7A8B698B842F90E04B
:1015A0009C8B8B8BE98DFA8DA081B18140FF82C02D
:1015B000F1E0BF126FC0AF126DC01C96ED91FC91AF
:1015C0002F813885A4014C0D5D1D69897A89898D2B
:1015D0009A8D0995EB89FC89F595E7954E2F5FEF7C
:1015E000C51AD50A6D817E818D899E89680F791F04
:1015F0007E836D8398E0C916D10481F6AFEF2A1A75
:101600003A0AEB81FC81E40DF51DFC83EB83F5E0E8
:101610002F16310409F0B3CF2F81388526153705F1
:10162000B9F0A98DBA8DED91FC91B1E0BB1257C014
:10163000AB1255C069817A816B5F7F4F0088F18959
:10164000E02D830128E030E0A401898D9A8D099571
:10165000A98DBA8DED91FC9111970688F789E02D3F
:10166000CD016A960FB6F894DEBF0FBECDBFDF91F5
:10167000CF911F910F91FF90EF90DF90CF90BF908F
:10168000AF909F908F907F906F905F904F903F9022
:101690002F9009941E96ED91FC91EF80F8840985B6
:1016A0001A8592014D815E816B817C81898D9A8D35
:1016B000099590CF2F8138852615370509F48ACFF3
:1016C00031E0B31207C0A31205C01C96ED91FC9146
:1016D000930178CF1E96ED91FC917301E0CF6B855D
:1016E0007C85641975090684F785E02D73010F85E3
:1016F00018899201A401898D9A8D0995A9CFF901C4
:1017000034969491329745915491D91AB7E0DB9E63
:10171000400D511D1124F901259134913C8B2B8BE7
:10172000FA0125903490FA013296749031963491F2
:10173000398B329664903196449041E04C1518F004
:101740004A1508F07FC0662D062C000C770B7C83B1
:101750006B83842D042C000C990B9E838D83A98DA3
:10176000BA8DED91FC9111970284F385E02DCD01A6
:101770000995512CD12CC12CEA2DF0E0FA87E9878C
:101780002B2D30E03C872B87A401440D511D47FCD5
:101790005A95588F4F8B69817A81660D711D67FC50
:1017A0007A957E876D877989C71608F051CF2C2DE1
:1017B00030E04D815E81420F531FA985BA854A9F53
:1017C000C0014B9F900D5A9F900D1124FC01E80D14
:1017D000F91DF88BEF87852D612C4F89588D420FAD
:1017E000531F5E8B4D8B671408F050C04424439404
:1017F000480E877041F4C1010196EB89FC89E20D26
:10180000F31DD4901C01D7FE19C0A98DBA8DED919E
:10181000FC91662D70E0B1E0BB1219C0AB1217C08D
:101820002D853E85620F731F0484F585E02D2F8181
:1018300038854D895E89898D9A8D0995DD0C639473
:10184000842DD1CF1E821D821C821B8288CF4B81AA
:101850005C81640F751FAB85BC856A9FC0016B9F5F
:10186000900D7A9F900D112469817A81680F791FFC
:101870000684F785E02DEF80F88409851A859D019F
:101880004F855889898D9A8D0995D8CF570CC39467
:101890008ACF6A960FB6F894DEBF0FBECDBFDF9138
:1018A000CF911F910F91FF90EF90DF90CF90BF905D
:1018B000AF909F908F907F906F905F904F903F90F0
:1018C0002F9008958F929F92AF92CF92EF92FF92B6
:1018D0000F931F93CF93DF93EC01262F898D9A8D61
:1018E000009709F051C06A30D1F41D861C868D899D
:1018F00048E0849F900111248E859F85820F931F5D
:101900009F878E8781E090E0DF91CF911F910F91AB
:10191000FF90EF90CF90AF909F908F9008956D3093
:1019200089F3CC88AD888F898823C1F08C859D850B
:1019300036E0C39E800D911D1124488559854817B6
:10194000590764F44E855F851D861C8638E0A39E8A
:10195000C0011124840F951F9F878E87EA88FB881A
:10196000088919894E855F856C857D85CE010E9429
:101970003D0A2C898C859D8546E0249F800D911D14
:1019800011249D878C87BECF6A3069F41D861C8622
:10199000FC013896E4912D898E859F85E29F800D0C
:1019A000911D1124ADCF6D3009F4ACCFFC013496FC
:1019B0003491631708F4A6CF3296E491E61708F441
:1019C000A1CFFC01329685909490462F431B342F73
:1019D00047E0349F800C911C1124F401329634911D
:1019E0003196E4913323A9F1EE2399F1CC88F401E7
:1019F0003596E491AD884F89442301F10E2E000CF9
:101A0000FF0BE30FF11DCE9EA001CF9E500D1124C0
:101A10006C857D85460F571F688579856417750726
:101A20006CF44E855F851D861C86FC013896E4911A
:101A3000AE9E400D511D11245F874E87EA88FB88BA
:101A4000088919894E855F856C857D85CE010E9448
:101A50003D0AF4013496E4912C898C859D85E29FA2
:101A6000800D911D11248DCF6F927F928F929F9246
:101A7000AF92BF92CF92DF92EF92FF920F931F939C
:101A8000CF93DF93EC016B015A0139014801E881E2
:101A9000F9810284F385E02D0995E881F9810288B6
:101AA000F389E02D87019301A501B601CE010995C7
:101AB000A501480D591D41505109E881F98102885D
:101AC000F389E02D9301B601CE010995E881F981F2
:101AD0000088F189E02D9401A501B601CE01099598
:101AE000C60CD71CB60161507109E881F9810088E4
:101AF000F189E02D9401A501CE010995E881F981D4
:101B00000688F789E02DCE01DF91CF911F910F91CB
:101B1000FF90EF90DF90CF90BF90AF909F908F900D
:101B20007F906F9009946F927F928F929F92AF9265
:101B3000BF92CF92DF92EF92FF920F931F93CF93BA
:101B4000DF935C01EB016A01490138018701DC0187
:101B5000ED91FC916217730719F5641675062CF068
:101B6000962D872D3A01C92ED82E960126193709B0
:101B70002F5F3F4F048CF58DE02DA301BE01C50101
:101B80000995DF91CF911F910F91FF90EF90DF901A
:101B9000CF90BF90AF909F908F907F906F9008955F
:101BA0004615570591F42617370724F0892D4B0168
:101BB000C22FD82F9E01281939092F5F3F4F068C5D
:101BC000F78DE02DA601B401DACF0284F385E02D74
:101BD0000995D501ED91FC910488F589E02D8301EB
:101BE0009401A601BE01C5010995D501ED91FC91B5
:101BF0000688F789E02DC501DF91CF911F910F91E4
:101C0000FF90EF90DF90CF90BF90AF909F908F901C
:101C10007F906F900994EF92FF920F931F93DC01D6
:101C20001A960D911C911B9718962D913C9119971E
:101C3000ED91FC9100A0F1A1E02D7B0150E040E08E
:101C400070E060E009951F910F91FF90EF9008956B
:101C50004F925F926F927F928F929F92AF92BF92BC
:101C6000CF92DF92EF92FF920F931F93CF93DF9368
:101C70006C012B015A0139014801DC01ED91FC9105
:101C80000284F385E02D0995E201640C751CD601F0
:101C9000ED91FC91C615D7055CF40088F189E02D23
:101CA00087019401A501BE01C60109952196EFCFD8
:101CB0000688F789E02DC601DF91CF911F910F9122
:101CC000FF90EF90DF90CF90BF90AF909F908F905C
:101CD0007F906F905F904F9009948F929F92AF92F8
:101CE000BF92CF92DF92EF92FF920F931F93CF9309
:101CF000DF93EC015B014A016901E881F98102840B
:101D0000F385E02D099595012C0D3D1D21503109DC
:101D1000E881F9810488F589E02D78018401A40126
:101D2000B501CE010995E881F9810688F789E02D92
:101D3000CE01DF91CF911F910F91FF90EF90DF9037
:101D4000CF90BF90AF909F908F9009948F929F9269
:101D5000AF92BF92CF92DF92EF92FF920F931F93B9
:101D6000CF93DF93EC015B014A0169017801E881BF
:101D7000F9810284F385E02D0995C80CD91C8601F0
:101D800001501109E881F9810488F589E02D950158
:101D9000A401B501CE010995E881F9810688F7898A
:101DA000E02DCE01DF91CF911F910F91FF90EF9029
:101DB000DF90CF90BF90AF909F908F900994EF925B
:101DC000FF920F931F93DC01ED91FC9100A0F1A114
:101DD000E02D09951F910F91FF90EF9008950F93BB
:101DE0001F93DC01ED91FC91068CF78DE02D099598
:101DF0001F910F9108950F931F93DC01ED91FC91BA
:101E0000048CF58DE02D09951F910F910895DC014B
:101E1000ED91FC910084F185E02D09943F924F9261
:101E20005F926F927F928F929F92AF92BF92CF926A
:101E3000DF92EF92FF920F931F93CF93DF935C019A
:101E40007B014A016901390187E0680E711C93E04A
:101E5000759467949A95E1F72B01400E511E10E09E
:101E600000E0312CD0E0C0E0CE0187709927330C20
:101E7000892B59F4FE0183E0F595E7958A95E1F702
:101E8000E00FF11FE80DF91D349037FE0AC021E084
:101E900030E0A701B5016C0F7D1F8AE493E00E943A
:101EA000070F2196CC16DD06F9F68FEFE81AF80A2F
:101EB000060D171DE414F504A9F6DF91CF911F91CB
:101EC0000F91FF90EF90DF90CF90BF90AF909F90D9
:101ED0008F907F906F905F904F903F9008952F92DA
:101EE0003F924F925F926F927F928F929F92AF92AA
:101EF000BF92CF92DF92EF92FF920F931F93CF93F7
:101F0000DF9300D000D000D0CDB7DEB73C016A012E
:101F10003E832D83FC82EB825801A41AB50AB7FEDA
:101F200003C0B194A194B1088D809E80861A970A4F
:101F300097FE03C09194819491088A149B045CF0ED
:101F4000902F812F0D811E819D838E839C2D8D2D41
:101F50006B01692F782F0C151D055CF09D818E811A
:101F60007E836D83692F782F902F812F8601C92E54
:101F7000D82E1601201A310A2B012D813E81421ADA
:101F8000530A57FE03C0519441945108710137FE22
:101F900003C03FEFE31AF30AF594E7948D819E8125
:101FA000861797075CF5A1E0B0E0BA83A983C01655
:101FB000D1064CF1D301ED91FC910484F585E02D1F
:101FC0002B813C81A8016D817E818A149B041CF0C9
:101FD0004D815E81B801C3010995E418F508F7FE4B
:101FE0000AC02D813E8189819A81280F391F3E8345
:101FF0002D83E20CF31C0F5F1F4FD9CF2FEF3FEF64
:102000003A832983D4CF26960FB6F894DEBF0FBE4D
:10201000CDBFDF91CF911F910F91FF90EF90DF9097
:10202000CF90BF90AF909F908F907F906F905F9078
:102030004F903F902F900895089520910702260F0A
:102040003327331F21323105ECF420916802FC0163
:1020500090E080E0243069F082E00895A0910702CA
:102060002191AC0149515E4FA40FB52FB11D2C93A6
:102070000196861798F380910702680F6093070214
:1020800080E0089581E008951092680281E08093D5
:1020900067021092620261E082E10E94020661E042
:1020A00083E10E940206E9EBF0E080818E7F80836D
:1020B00080818D7F808388E48093B80085E480935D
:1020C000BC00089510929B0210929A0210929902FD
:1020D000109298020E94441081E795E09093970235
:1020E0008093960282E795E0909395028093940204
:1020F0000895CF93DF9391E09093E6018823B9F0A0
:10210000C091B800D091BA008091BC008A7B8093C6
:10211000BC0060E082E10E94020660E083E10E9470
:1021200002060E944410D093BA00C093B800DF9119
:10213000CF910895E0919B0280919A02E81730F4C4
:10214000F0E0E259FD4F808190E008958FEF9FEF1E
:10215000089590919B0280919A022FEF3FEF98177C
:1021600048F4E92FF0E0E259FD4F208130E09F5F15
:1021700090939B02C9010895CF92DF92EF92FF9254
:102180000F931F93CF93DF937C01CB018A012091A2
:102190009302222389F0EB016B01C40ED51ECC15EE
:1021A000DD0569F06991D701ED91FC910190F08115
:1021B000E02DC7010995F3CF642F0E941D10C801BF
:1021C000DF91CF911F910F91FF90EF90DF90CF9013
:1021D0000895CF93DF931F92CDB7DEB76983209127
:1021E00093022223F9F020919802203258F021E046
:1021F00030E0FC013383228390E080E00F90DF9198
:10220000CF91089580919902E82FF0E0EA53FE4FB4
:10221000998190838F5F809399028093980281E0E7
:1022200090E0ECCF61E0CE0101960E941D10F7CF47
:10223000CF92DF92EF92FF920F931F93CF93DF9392
:10224000D091980281E0D13208F09CC0C0919202F6
:102250000E9461066B017C018091680281116CC053
:1022600082E08093680281E0809367028FEF809321
:10227000660210926502D0936402A6ECB1E0E2E43B
:10228000F2E080E0D8138DC0109263028091630267
:10229000CC0FC82BC093630280916202813009F099
:1022A00084C0109262020E9461066B017C018091E1
:1022B00063028093BB0080916A0290916B02A091AF
:1022C0006C02B0916D02892B8A2B8B2BA1F00E949E
:1022D000610600916A0210916B0220916C023091AC
:1022E0006D026C197D098E099F09061717072807CB
:1022F000390708F442C08091BC0083FDD8CF85EC3B
:102300008093BC000E9461066B017C018091680291
:10231000823009F44CC0809166028F3F09F469C095
:1023200080916602803209F466C080916602803333
:1023300009F463C084E026C080916A0290916B0228
:10234000A0916C02B0916D02892B8A2B8B2B09F422
:1023500083CF0E94610600916A0210916B02209166
:102360006C0230916D026C197D098E099F09061768
:1023700017072807390708F06FCF809169020E947C
:10238000791085E0109299021092980210929302AF
:10239000DF91CF911F910F91FF90EF90DF90CF9041
:1023A00008959D9191938F5F6DCF85EEA9CF809118
:1023B0006A0290916B02A0916C02B0916D02892B20
:1023C0008A2B8B2B09F4A2CF0E94610600916A022E
:1023D00010916B0220916C0230916D026C197D0995
:1023E0008E099F09061717072807390708F08ECFAF
:1023F000C4CF80E0C7CF82E0C5CF83E0C3CFEF92E8
:10240000FF920F931F93CF937C01C62F8091670398
:1024100090916803892B09F44EC080916B030E9450
:1024200073058091670390916803DC01ED91FC9145
:102430000190F081E02D60E009958701EE24E3949E
:10244000F12CC1508091670390916803CF3F61F1F7
:10245000B0E2EB16F104A8F00E94181180916B0312
:102460000E9473058091670390916803DC01ED91F0
:10247000FC910190F081E02D60E00995EE24E39459
:10248000F12C8091670390916803F8016491DC015D
:10249000ED91FC910190F081E02D0995BFEFEB1AD1
:1024A000FB0A0F5F1F4FCDCFCF911F910F91FF9070
:1024B000EF900C941811E0917703F09178039081DC
:1024C00080917D038095892380838701C15008F422
:1024D00038C0F80184912091650330916603232B65
:1024E00029F00E941D0A0F5F1F4FF0CF28E030E057
:1024F00040E8E0917303F091740390917B03582FAF
:102500005423D9F05081952B9083E0917503F0917D
:102510007603908150917C03952B9083E091750315
:10252000F0917603508190917C0390959523908350
:10253000469521503109E9F6D6CF508190959523E3
:10254000E3CFCF911F910F91FF90EF900895CF931C
:10255000DF930E94850520E030E040EC57E40E94C4
:102560002B2420E034E244E759E40E94982420E040
:1025700034E244E759E40E94D02220E03AEB4BE5F4
:1025800058E40E942C2420E030E040E850E40E940F
:10259000D02220E030E040E058E30E94D0220E94A8
:1025A0000A2560933E027F73706470933D0280E55C
:1025B00080933F02109240028091390381FF03C053
:1025C00090E89093400282FF05C090914002946091
:1025D0009093400283FF05C09091400292609093D7
:1025E000400284FF05C090914002986090934002A1
:1025F00085FF05C0909140029062909340029091B7
:10260000400290619093400286FD24C010924102E6
:1026100087FF05C08091410280688093410280E677
:102620000E947305CDE3D2E069918EE393E00E94AE
:10263000E91082E0C234D807B9F78EE393E00E9434
:10264000181181E090E090933D0380933C03DF916B
:10265000CF91089590E490934102DACFCF93DF9326
:102660000E94850520E030E040EC57E40E942C24D5
:1026700020E034E244E759E40E94982420E034E268
:1026800044E759E40E94D02220E03AEB4BE558E4BD
:102690000E942C2420E030E040E850E40E94D02248
:1026A00020E030E040E058E30E94D0220E940A255A
:1026B00060933E027F73706470933D0280ED80935F
:1026C0003F02109240028091390381FF03C090E8DD
:1026D0009093400282FF05C09091400294609093D5
:1026E000400283FF05C090914002926090934002A7
:1026F00084FF05C09091400298609093400285FF4E
:1027000005C09091400290629093400290914002E7
:1027100090619093400286FD24C01092410287FF91
:1027200005C08091410280688093410280E60E944A
:102730007305CDE3D2E069918EE393E00E94E91046
:1027400082E0C234D807B9F78EE393E00E941811F3
:1027500081E090E090933D0380933C03DF91CF9123
:10276000089590E490934102DACF1F93CF93DF93C3
:10277000EC018D8D9E8D892BF9F0162F89A10E9479
:1027800073058D8D9E8DDC01ED91FC910190F081A2
:10279000E02D60E009958D8D9E8DDC01ED91FC9121
:1027A0000190F081E02D612F09958D8D9E8DDF9137
:1027B000CF911F910C941811ADA5BEA59C918BA92A
:1027C000809589238C938B8D9C8D892B31F0862F5E
:1027D000DF91CF911F910C941D0A28E030E080E832
:1027E000A9A5BAA599A9462F4823C1F04C91942BCD
:1027F0009C93ABA5BCA59C914AA9942B9C93ABA59B
:10280000BCA54C919AA9909594239C9386952150B0
:10281000310931F7DF91CF911F9108954C91909537
:102820009423E6CFEF92FF920F931F93CF93DF9302
:102830008091670390916803892B09F48DC02091E2
:102840007F0330918003409181035091820360E0C7
:1028500074E284EF90E00E94EF2320513109410996
:10286000510956954795379527952093B80065E00F
:1028700084E89AE00E94FF1160914E0361508AE45F
:1028800093E00E94B5132091500330915103C90188
:10289000079697FD079633E0959587953A95E1F76A
:1028A00020914E0330914F03829F8001839F100D32
:1028B000929F100D1124C0916903D0916A038091F9
:1028C0006703909168030C0F1D1F892B09F483C0C7
:1028D00080916B030E947305809167039091680358
:1028E000DC01ED91FC910190F081E02D60E409950F
:1028F000EE24E394F12C80916703909168030C1708
:102900001D0709F440C0B0E2EB16F104A8F00E94E4
:10291000181180916B030E94730580916703909159
:102920006803DC01ED91FC910190F081E02D60E401
:102930000995EE24E394F12C80916703909168034C
:102940006991DC01ED91FC910190F081E02D0995F8
:10295000BFEFEB1AFB0ACFCF80916503909166031E
:10296000892B31F080918803909189030E94240A79
:10297000E0917903F0917A03908180917E038095B4
:102980008923808374CF0E941811809167039091EE
:102990006803892B09F460C020918303309184037C
:1029A000409185035091860360E074E284EF90E0EB
:1029B0000E94EF232051310941095109569547954D
:1029C000379527952093B800DF91CF911F910F91F4
:1029D000FF90EF900895E0917703F0917803808164
:1029E00090917D03892B80830C171D0771F28991CB
:1029F0002091650330916603232B19F00E941D0A74
:102A0000F3CF28E030E040E8E0917303F0917403E5
:102A100090917B03582F5423D9F05081952B9083AC
:102A2000E0917503F0917603908150917C03952B92
:102A30009083E0917503F0917603508190917C032F
:102A4000909595239083469521503109E9F6CCCF96
:102A5000508190959523E3CFE0917903F0917A032B
:102A6000808190917E03892B8083AECF1F93CF937B
:102A7000DF93EC01162F8D8D9E8D892BB1F12DA941
:102A80003EA94FA958AD60E074E284EF90E00E9447
:102A9000EF23205131094109510956954795379542
:102AA00027952093B80066EA111167EACE010E94CB
:102AB000B5138D8D9E8D892B41F129AD3AAD4BAD6E
:102AC0005CAD60E074E284EF90E00E94EF2320515F
:102AD0003109410951095695479537952795209316
:102AE000B800DF91CF911F9108958B8D9C8D892B1C
:102AF00021F08EAD9FAD0E94240AEFA5F8A9908128
:102B00008CA9809589238083CECFEFA5F8A98081F9
:102B10009CA9892B8083E5CF90E080E0089562E353
:102B200070E080E090E00E94860684E00E94D90573
:102B300020912F02019721F4246020932F02089501
:102B40002860FBCFFC0101900020E9F73197AF012D
:102B5000481B590BBC018AE493E00C94B9068F9290
:102B60009F92AF92BF920F931F93CF93DF93CDB7F6
:102B7000DEB7A1970FB6F894DEBF0FBECDBF19A286
:102B8000423008F44AE08E010F5D1F4F842E912CD5
:102B9000B12CA12CA50194010E94EF23E62FB901CD
:102BA000CA01EA30F4F4E05DD801EE938D01232BE5
:102BB000242B252B79F790E080E0109719F0CD01B8
:102BC0000E94A215A1960FB6F894DEBF0FBECDBF2E
:102BD000DF91CF911F910F91BF90AF909F908F90F9
:102BE0000895E95CE1CF009711F00C94A21590E0F4
:102BF00080E008954F925F926F927F928F929F92A2
:102C0000AF92BF92CF92DF92EF92FF920F931F93FA
:102C1000CF936B017C01742EAC019B010E94962521
:102C2000882399F08EE591E0CF911F910F91FF904D
:102C3000EF90DF90CF90BF90AF909F908F907F905C
:102C40006F905F904F900C94A21546015701E89445
:102C5000B7F82FEF3FEF4FE75FE7C501B4010E94E0
:102C6000962581110DC02FEF3FEF4FE75FE7C501BC
:102C7000B4010E946A2218161CF482E691E0D4CFB7
:102C80002FEF3FEF4FE75FE4C701B6010E949125A8
:102C900018161CF486E691E0C7CF2FEF3FEF4FE701
:102CA0005FECC701B6010E946A2287FDF3CF20E0E6
:102CB00030E0A901C701B6010E946A2210E000E0DD
:102CC00087FF0AC06DE28AE493E00E94620C8C01E7
:102CD000F7FAF094F7F8F094C0E060E070E080E07C
:102CE0009FE37C1641F020E030E040E251E40E9496
:102CF0009824CF5FF6CFA70196010E942C242B01C8
:102D00003C010E940A254B015C014AE00E94AF157C
:102D10007C01E00EF11ECC23C1F1C501B4010E947B
:102D20006F229B01AC01C301B2010E942B244B0115
:102D30005C016EE28AE493E00E94620CE80EF91EE8
:102D4000C15018F120E030E040E251E4C501B40187
:102D50000E94D0222B013C010E940A254B01B12C7C
:102D6000A12C4AE0C501B4010E94AF15E80EF91E7E
:102D7000C501B4010E946F229B01AC01C301B201E5
:102D80000E942B244B015C01DBCFC701CF911F9127
:102D90000F91FF90EF90DF90CF90BF90AF909F90FA
:102DA0008F907F906F905F904F900895CF93DF93B7
:102DB0000E94A215EC018AE691E00E94A2158C0FF8
:102DC0009D1FDF91CF910895CF93DF9390E080E036
:102DD0000E948E23CEE8D2E0888381E090E00E94BA
:102DE0008E23898382E090E00E948E238A8383E091
:102DF00090E00E948E238B83CE01DF91CF910895C6
:102E0000FF920F931F93CF93DF930EE812E0D0E071
:102E1000C0E0F801F1908F01CE010E948E23F816D8
:102E200021F06F2DCE010E9496232196C430D1054A
:102E300081F78EE892E0DF91CF911F910F91FF9083
:102E400008952091500330915103C901079697FDD1
:102E5000079623E0959587952A95E1F720914E03F3
:102E600030914F03829FA001839F500D929F500D80
:102E7000112470E060E08091690390916A030C94E2
:102E80008B278F929F92AF92BF92EF92FF920F93F8
:102E90001F93CF93DF9300D000D01F92CDB7DEB742
:102EA0007C014A015B018E010F5F1F4F85E0F80135
:102EB00011928A95E9F781E0F1E0EF16F10409F447
:102EC00081E18B838091390381FF02C090E89C836C
:102ED00082FF03C09C8194609C8383FF03C09C811C
:102EE00092609C8384FF03C09C8198609C8385FFD3
:102EF00003C09C8190629C839C8190619C8386FF2F
:102F000002C090E49D8387FF03C08D8180688D831C
:102F100020E030E04AE754E4C501B4010E94D02229
:102F2000EA94EF28E1F520E030E041E653E40E9426
:102F30002C2420E030E040E850E40E94D0222FE62C
:102F400032E143E052E40E9498240E940A257F73F4
:102F500079836A8380E60E9473057E0186E0E80E2D
:102F6000F11CF80161918F018EE393E00E94E9105A
:102F7000E016F106B1F78EE393E00E9418110F906E
:102F80000F900F900F900F90DF91CF911F910F91A5
:102F9000FF90EF90BF90AF909F908F90089520E0AA
:102FA00030E041E653E40E942B24C3CFCF92DF925E
:102FB000EF92FF920F931F93CF93DF93EC0185E085
:102FC000FE0111928A95E9F70E9461066B017C016E
:102FD00080916802811165C081E0809368028093CE
:102FE00067029FEF909366021092650294E09093BF
:102FF00064028093630280916302806C8093630219
:1030000080916202813009F08FC0109262020E94AA
:1030100061066B017C01809163028093BB0080910B
:103020006A0290916B02A0916C02B0916D02892BA3
:103030008A2B8B2BA1F00E94610600916A021091ED
:103040006B0220916C0230916D026C197D098E0922
:103050009F09061717072807390708F443C080910E
:10306000BC0083FDD8CF85EC8093BC000E94610634
:103070006B017C0180916802813009F457C0809116
:103080006502853008F074C080916502E2E4F2E0E8
:10309000AEE6B2E090E0981751F121912D939F5F39
:1030A000FACF80916A0290916B02A0916C02B0916C
:1030B0006D02892B8A2B8B2B09F48ACF0E94610623
:1030C00000916A0210916B0220916C0230916D02A6
:1030D0006C197D098E099F090617170728073907FC
:1030E00008F076CF809169020E94791080E01092FA
:1030F0009B0280939A028823E9F17E01F5E0EF0EAE
:10310000F11C8EE393E00E94A9108993EC16FD0652
:10311000C1F781E090E0DF91CF911F910F91FF9077
:10312000EF90DF90CF90089585EE9ECF80916A0258
:1031300090916B02A0916C02B0916D02892B8A2B49
:103140008B2B09F497CF0E94610600916A021091BF
:103150006B0220916C0230916D026C197D098E0911
:103160009F09061717072807390708F083CFBACF3A
:1031700085E08CCF90E080E0CECF8F929F92AF928F
:10318000BF92CF92DF92EF92FF920F931F93CF9354
:10319000DF9300D000D01F92CDB7DEB74B015C01AA
:1031A00020E034E244E759E40E94D0220E940A253C
:1031B0006B017C0160537242894F9F4F0E946F22C6
:1031C00020E034E244E759E40E949824AB01BC01BA
:1031D00081E090E00E9441176EE170E080E090E0B5
:1031E0000E948606CE0101960E94D61710E000E0EC
:1031F000019721F40C8102950F7010E0C701B60110
:10320000605D7D4D864091090E946F2220E034E28E
:1032100044E759E40E949824AB01BC0190E080E0AF
:103220000E9441176EE170E080E090E00E94860607
:10323000CE0101960E94D617019721F52C81229587
:103240002F7081E090E02017110609F00CF480E067
:1032500080933C0390933D03B501A4010E94411764
:103260000F900F900F900F900F90DF91CF911F91C3
:103270000F91FF90EF90DF90CF90BF90AF909F9015
:103280008F90089580E090E0E3CF0E947D2785ED48
:103290008093BC0080916A0290916B02A0916C02B5
:1032A000B0916D020796A11DB11D23E0B695A795BB
:1032B000979587952A95D1F72091BC0024FD03C0EE
:1032C00010926802089540916A0250916B026091D9
:1032D0006C0270916D02452B462B472B69F30097CA
:1032E000A105B10541F02AE22A95F1F700C0019746
:1032F000A109B109E1CF809169020C947910CF92B4
:10330000DF92EF92FF920F931F93CF93DF93CDB78E
:10331000DEB762970FB6F894DEBF0FBECDBF0E9436
:10332000211785E290E09093570380935603109203
:1033300059031092580311E010935E0310935F033A
:1033400089E791E00E94F3151092570310925603FB
:103350008CE090E0909359038093580383E080932E
:103360005E0380935F0320E030E048EC52E460911C
:1033700004017091050180910601909107010E945E
:103380006A2287FFAAC08AE891E00E94F315609143
:10339000040170910501809106019091070142E0BE
:1033A0000E94FA1510935E0310935F0382E891E088
:1033B0000E94F3158AE090E09093570380935603A0
:1033C00088E290E0909359038093580310935E0332
:1033D00010935F038AE891E00E94F31580912F0219
:1033E00061E480FF6DE48AE493E00E94620C8AE667
:1033F00091E00E94A21580912F0280FF7DC08DE692
:1034000091E00E94F3158BE490E090935703809332
:10341000560388E290E0909359038093580381E02B
:1034200080935E0380935F0386E891E00E94F3152A
:103430004AE0CE0101966C01BC0180912D02909171
:103440002E020E943522F60101900020E9F7319703
:103450008F010C191D09B8016F5F7F4F90E080E06C
:103460000E94C0267C01009709F449C0FC0110822B
:10347000B6010E949227A801B7018AE493E00E9456
:10348000B906E114F10419F0C7010E9437268CE84F
:1034900091E00E94F3158EE190E0909357038093A2
:1034A000560382E390E0909359038093580381E0A0
:1034B00080935E0380935F038EE891E00E94F31592
:1034C00060918E0270918F02809190029091910292
:1034D00042E00E94FA150E94121462960FB6F89408
:1034E000DEBF0FBECDBFDF91CF911F910F91FF9037
:1034F000EF90DF90CF90089582E791E082CF10E0C7
:1035000000E0B9CF1F920F920FB60F9211242F93A4
:103510003F938F939F93AF93BF9380913502909188
:103520003602A0913702B09138023091340223E084
:10353000230F2D3758F50196A11DB11D209334029C
:103540008093350290933602A0933702B0933802ED
:103550008091390290913A02A0913B02B0913C02D5
:103560000196A11DB11D8093390290933A02A09358
:103570003B02B0933C02BF91AF919F918F913F91DD
:103580002F910F900FBE0F901F90189526E8230FD4
:103590000296A11DB11DD2CF1F920F920FB60F92AE
:1035A00011242F933F934F935F936F937F938F9348
:1035B0009F93AF93BF93EF93FF93E0910201F0913C
:1035C00003010995FF91EF91BF91AF919F918F9169
:1035D0007F916F915F914F913F912F910F900FBE0F
:1035E0000F901F9018951F920F920FB60F921124F3
:1035F0002F933F934F935F936F937F938F939F93FB
:10360000AF93BF93EF93FF93E0910001F09101011D
:103610000995FF91EF91BF91AF919F918F917F910C
:103620006F915F914F913F912F910F900FBE0F902F
:103630001F9018951F920F920FB60F9211242F937F
:103640003F934F935F936F937F938F939F93AF932A
:10365000BF93EF93FF938CE992E00E943707FF91AD
:10366000EF91BF91AF919F918F917F916F915F91FA
:103670004F913F912F910F900FBE0F901F90189573
:103680001F920F920FB60F9211242F938F939F9337
:10369000EF93FF93E091AC02F091AD028081E09155
:1036A000B202F091B30282FD1BC090818091B502FD
:1036B0008F5F8F732091B602821741F0E091B502BF
:1036C000F0E0E456FD4F958F8093B502FF91EF91A6
:1036D0009F918F912F910F900FBE0F901F90189573
:1036E0008081F4CF1F920F920FB60F9211242F9367
:1036F0003F934F935F936F937F938F939F93AF937A
:10370000BF93EF93FF938091B900887F803609F4CF
:103710004AC0F0F5883209F4A7C018F5803109F4E1
:103720009BC0B8F4882309F4F9C0883009F494C028
:10373000FF91EF91BF91AF919F918F917F916F9189
:103740005F914F913F912F910F900FBE0F901F905F
:103750001895883109F488C0803251F78093660249
:1037600014C0803409F49DC040F48033B9F3883329
:10377000F9F68093660285ECB0C0803509F485C007
:10378000883509F496C0883499F60E944719D0CF3D
:10379000883909F48CC038F5883729F050F4883618
:1037A00011F0803729F683E0809368021092290295
:1037B00057C0883809F47BC0803919F0803809F087
:1037C000B7CF80912902803208F071C0E0912902C0
:1037D00081E08E0F809329028091BB00F0E0E75FCB
:1037E000FD4F80833DC0803B39F0E0F4803A09F41E
:1037F00079C0883A09F09CCF84E0809368021092E7
:10380000080210920702E0919602F0919702099542
:103810008091070281110FC081E08093070210920E
:10382000E70109C0803C09F4A6CF883C09F4A3CF86
:10383000883B09F07DCFE091080281E08E0F8093F4
:103840000802F0E0E951FE4F80818093BB00909127
:1038500008028091070229C0809163028093BB0017
:1038600085EC8093BC0064CF9091650280916402E6
:10387000981758F5E091650281E08E0F80936502FC
:10388000F0E0EE5BFD4F8081E9CFE091650281E0E1
:103890008E0F809365028091BB00F0E0EE5BFD4FE0
:1038A000808390916502809164029817C8F285E840
:1038B000D8CFE091650281E08E0F80936502809100
:1038C000BB00F0E0EE5BFD4F8083809167028111C9
:1038D0005CCF81E08093620284EA8093BC00109206
:1038E000680226CF85EC8093BC001092680280911C
:1038F0002902803230F4E0912902F0E0E75FFD4FC9
:1039000010826091290270E0E0919402F09195029A
:1039100089E092E00995109229020ACF109266027E
:1039200034CFECE9F2E01382128248EE53E060E01B
:1039300070E0448355836683778382E191E09183CD
:10394000808385EC90E09587848784EC90E097876E
:10395000868780EC90E0918B808B81EC90E0938B5C
:10396000828B82EC90E0958B848B86EC90E0978B39
:10397000868B118E128E138E148EAEE3B3E01396E7
:103980001C921E92129714964D935D936D937C93A7
:10399000179784E291E011969C938E93EAE4F3E00A
:1039A0001382128220E830E03583248380E490E0A3
:1039B000978386833187208793878287168A158627
:1039C00014861786168681E0858B848B2FEF3FEF58
:1039D000338B228B318B208B878B108E128E118E26
:1039E00086E391E091838083148E138EB68FA58F2A
:1039F00010A2178E8FEF84A385A386A387A380A729
:103A000080E89AE1A6E0B0E085AB96ABA7ABB0AF9B
:103A100080EA96E8A1E0B0E081AF92AFA3AFB4AF87
:103A200080E586AF17AE0E94621081E090E090932F
:103A30003D0380933C030895789484B5826084BDEF
:103A400084B5816084BD85B5826085BD85B58160A2
:103A500085BD80916E00816080936E001092810020
:103A600080918100826080938100809181008160DB
:103A7000809381008091800081608093800080919C
:103A8000B10084608093B1008091B0008160809328
:103A9000B00080917A00846080937A0080917A00EF
:103AA000826080937A0080917A00816080937A00AE
:103AB00080917A00806880937A001092C10060E063
:103AC00082E00E94300660E083E00E94300660E001
:103AD00084E00E94300661E082E00E94020661E01C
:103AE00083E00E94020661E084E00E9402068FE803
:103AF00095E19093030180930201809169008C60AD
:103B000080936900E99A0E946210E091AC02F09102
:103B1000AD0282E08083E091A802F091A9021082B8
:103B2000E091AA02F091AB028FEC80831092B40274
:103B3000E091B002F091B10286E08083E091AE02A4
:103B4000F091AF02808180618083E091AE02F091BC
:103B5000AF02808188608083E091AE02F091AF0275
:103B6000808180688083E091AE02F091AF02808115
:103B70008F7D80838AE999E9AAEBB2E480938E0273
:103B800090938F02A0939002B09391020E9400172D
:103B90000E94E41660918E0270918F0280919002D3
:103BA0009091910260930401709305018093060146
:103BB000909307012FE1209339030E94BD180E94C2
:103BC0007F198091690390916A03892B11F10E94FA
:103BD0002117209150033091510380914E03909111
:103BE0004F03213231050CF090C1B90160527109C7
:103BF00077FF02C06F5F7F4F759567958357910977
:103C000097FD019600E210E023E730E04AE855E036
:103C10008FC12091500330915103C901079697FD40
:103C20000796B3E095958795BA95E1F720914E03F5
:103C300030914F03AC01429FC001439F900D529FB2
:103C4000900D11240E949B2590936A038093690331
:103C5000892B09F0BCCF0E94211781E090E090935E
:103C60005D0380935C0390935B0380935A031092EF
:103C7000570310925603109259031092580382E092
:103C800080935E0380935F0385E991E00E94D616DE
:103C9000109257031092560380E190E090935903DD
:103CA000809358038EE991E00E94D6161092570334
:103CB0001092560380E290E090935903809358034A
:103CC00081E080935E0380935F0384EA91E00E9429
:103CD000D616109257031092560388E390E0909303
:103CE00059038093580380EB91E00E94D6160E94FE
:103CF000121460ED77E080E090E00E9486063FE0DD
:103D0000832E912C01E010E0412C512C40EB642ECD
:103D100042E4742E52E0A52EB12C60E0262E60E025
:103D2000362E8091300290913102A0913202B091F2
:103D300033020196A11DB11D809330029093310290
:103D4000A0933202B0933302883C9105A105B105DE
:103D500009F50E94E416C0900401D0900501E0909E
:103D60000601F0900701A7019601FC0160817181B5
:103D7000828193810E946A22882361F0C0928E0220
:103D8000D0928F02E0929002F09291020E9400176E
:103D90000E947F19F0902F02FF2DF170EF2E60E04E
:103DA000F0FE61E080E00E94020682E00E94D905F8
:103DB000892B39F48F2DEE2009F489C28E7F8093F0
:103DC0002F028DE392E00E94D617019779F50E94A9
:103DD000850520E030E543EC57E40E94982420E07C
:103DE00030E040E05FE30E942C240E94392520E06F
:103DF00030E040E251E40E94982460930401709303
:103E000005018093060190930701809140028295FD
:103E10008F7024E6829FC0011124B4010E94DB232D
:103E200070932E0260932D020E947F19F0902F0252
:103E3000F4FE23C080913D0287FF8DC290E026E012
:103E4000959587952A95E1F7029709F45BC28091D1
:103E50002B0290912C028130910509F044C260E060
:103E600070E08FEA92E40E94BD188DE392E00E9418
:103E7000D6170E942E13D0E0C0E080912F0282FF5F
:103E80001AC080FF6DC284FD6BC2806180932F02D7
:103E900010932C0200932B020E942E1362E370E019
:103EA00080E090E00E94860680912F028B7F8093B5
:103EB0002F020E947F1980912F0283FF1AC080FF7A
:103EC00089C284FD87C2806180932F02B0922C0248
:103ED000A0922B020E94A71262E370E080E090E0C3
:103EE0000E94860680912F02877F80932F020E9476
:103EF0007F192114310409F414CF0E942307882369
:103F000009F40FCF0E9400000CCFB9016054710971
:103F100077FF02C06F5F7F4F759567958255910956
:103F200097FD019600E410E022E530E04AE657E014
:103F3000959587950E940E0F82E080936C03809187
:103F4000670390916803892B09F4CBC08CE38093BD
:103F50006B030E9462108091720387FD1EC061E0B6
:103F60000E94300661E0809172030E94020661E0C7
:103F700070E080E090E00E94860660E0809172032D
:103F80000E9402066AE070E080E090E00E948606EF
:103F900061E0809172030E94020680916703909114
:103FA0006803892B09F45CC120917F033091800361
:103FB000409181035091820360E074E284EF90E0CD
:103FC0000E94EF2320513109410951095695479527
:103FD000379527952093B80064E086E895E00E9425
:103FE000FF116091500361508AE493E00E94B51381
:103FF00064E082E895E00E94FF1180916C0364E127
:10400000813009F460E18AE493E00E94B51364E032
:104010008EE795E00E94FF118FE8809387038091DF
:104020004E0390914F038038910509F032C1809181
:104030005003909151038034910509F03AC1809169
:104040006C03813009F423C18FEC8093870312E164
:104050006AED8AE493E00E94B513612F8AE493E04D
:104060000E94B51361E88AE493E00E94B513609161
:1040700087038AE493E00E94B51369ED8AE493E034
:104080000E94B51380916C0361EF813009F462E204
:104090008AE493E00E94B51366E088E795E00E9409
:1040A000FF118091670390916803892B09F405C182
:1040B00020918303309184034091850350918603BE
:1040C00060E074E284EF90E00E94EF232051310918
:1040D0004109510956954795379527952093B80082
:1040E000BACD61E0809170030E94300661E080915A
:1040F00071030E94300680917003082E000C990B0A
:10410000FC01E85BF54FE491F0E0EE0FFF1FEC5C83
:10411000F54F259134913093780320937703FC0178
:10412000E45AF54FE491E0937D0380917103082EEA
:10413000000C990BFC01E85BF54FE491F0E0EE0F09
:10414000FF1FEC5CF54FA591B491B0937A03A09357
:104150007903FC01E45AF54FE491E0937E038C91DE
:10416000E82BEC938091650390916603892B09F409
:1041700034C01FB7F89480912A02811127C0E2E56C
:10418000FAE08491E6E6FAE09491E82FF0E0EE0F91
:10419000FF1FE65DF54FA591B491EC91E92321F461
:1041A00061E08AE00E94020661E08AE00E94300637
:1041B0008CB580618CBD8CB580648CBD61E08DE078
:1041C0000E94300661E08BE00E94300680912A0256
:1041D0008F5F80932A021FBFBECE61E080916E0385
:1041E0000E94300661E080916F030E94300680914A
:1041F0006E03082E000C990BFC01E85BF54FE4916F
:10420000F0E0EE0FFF1FEC5CF54F259134913093F9
:10421000740320937303FC01E45AF54FE491E09397
:104220007B0380916F03082E000C990BFC01E85B67
:10423000F54FE491F0E0EE0FFF1FEC5CF54FA59118
:10424000B491B0937603A0937503FC01E45AF54F43
:10425000E491E0937C038C91E095E823EC937BCE92
:104260008091650390916603892B31F080918803DA
:10427000909189030E94240AE0917903F0917A03D6
:10428000908180917E03809589238083A5CE8FE9DC
:10429000DCCE8036910569F48091500390915103F2
:1042A000409739F480916C03813029F08FEA809334
:1042B000870312E0CDCE80E1FACFE0917903F0914F
:1042C0007A03808190917E03892B8083C4CC8160A6
:1042D00080932F0264E670E080E090E00E94860602
:1042E0000E947F196ECD0297B1F560E070E088ED15
:1042F00092E40E94BD188DE392E00E94D6170E94BE
:10430000A712B9CD0E94850520E030E543EC57E4C3
:104310000E94982420E030E040E05FE30E942C24DB
:104320000E94392520E030E040E251E40E949824C8
:104330000E94BD188F2D8F7E80932F020E947F19BF
:104340001092300210923102109232021092330217
:10435000C1E0D0E092CDC130D10509F08ECDEACFD9
:10436000C0900401D0900501E0900601F090070193
:1043700023E333E348ED52E4C701B6010E946A2209
:1043800087FF1BC02DEC3CEC4CEC5DE3C701B60194
:104390000E942C2460930401709305018093060110
:1043A000909307010E94BD181092300210923102C2
:1043B000109232021092330277CD40920401509253
:1043C0000501609206017092070160E070E080EBE9
:1043D00092E4E8CFC0900401D0900501E09006017E
:1043E000F090070120E030E040EB52E4C701B60155
:1043F0000E9491251816DCF42DEC3CEC4CEC5DE3AE
:10440000C701B6010E942B2460930401709305013B
:1044100080930601909307010E94BD18109230020C
:104420001092310210923202109233025BCD80E082
:1044300090E0A8EDB2E48093040190930501A0936D
:104440000601B0930701BC01CD01E6CF86E391E000
:1044500090934B0380934A038091690390916A0380
:10446000009711F00C9437260895BB274A3031F499
:10447000992322F4BDE2909581959F4F0C9441229F
:10448000BB27FB015527AA27880F991FAA1FA4172E
:1044900010F0A41B83955051B9F7A05DAA3308F022
:1044A000A95DA193009779F7B111B1931192CB0156
:1044B0000C945A22DC01FC01672F71917723E1F7FC
:1044C000329704C07C916D9370836291AE17BF07E1
:1044D000C8F308950E94AC2208F481E00895E8949E
:1044E00009C097FB3EF490958095709561957F4F3C
:1044F0008F4F9F4F9923A9F0F92F96E9BB279395EA
:10450000F695879577956795B795F111F8CFFAF4F9
:10451000BB0F11F460FF1BC06F5F7F4F8F4F9F4F2A
:1045200016C0882311F096E911C0772321F09EE888
:10453000872F762F05C0662371F096E8862F70E0EE
:1045400060E02AF09A95660F771F881FDAF7880FC8
:104550009695879597F90895990F0008550FAA0B1E
:10456000E0E8FEEF16161706E807F907C0F0121686
:104570001306E407F50798F0621B730B840B950B89
:1045800039F40A2661F0232B242B252B21F40895DE
:104590000A2609F4A140A6958FEF811D811D08957B
:1045A0000E94E3220C9454230E94462338F00E9478
:1045B0004D2320F0952311F00C943D230C944323BC
:1045C00011240C9488230E94652370F3959FC1F3F6
:1045D000950F50E0551F629FF001729FBB27F00DB1
:1045E000B11D639FAA27F00DB11DAA1F649F662706
:1045F000B00DA11D661F829F2227B00DA11D621F55
:10460000739FB00DA11D621F839FA00D611D221F0E
:10461000749F3327A00D611D231F849F600D211DF2
:10462000822F762F6A2F11249F5750409AF0F1F075
:1046300088234AF0EE0FFF1FBB1F661F771F881FDE
:1046400091505040A9F79E3F510580F00C943D23B6
:104650000C9488235F3FE4F3983ED4F386957795D6
:104660006795B795F795E7959F5FC1F7FE2B880F84
:10467000911D9695879597F9089597F99F6780E81A
:1046800070E060E008959FEF80EC089500240A94A4
:104690001616170618060906089500240A9412161D
:1046A0001306140605060895092E0394000C11F450
:1046B000882352F0BB0F40F4BF2B11F460FF04C0FD
:1046C0006F5F7F4F8F4F9F4F089557FD9058440F56
:1046D000551F59F05F3F71F04795880F97FB991F61
:1046E00061F09F3F79F0879508951216130614061E
:1046F000551FF2CF4695F1DF08C0161617061806AB
:10470000991FF1CF86957105610508940895E89485
:10471000BB2766277727CB0197F90895F999FECF34
:1047200092BD81BDF89A992780B50895262FF999F1
:10473000FECF1FBA92BD81BD20BD0FB6F894FA9A84
:10474000F99A0FBE019608952F923F924F925F9271
:104750006F927F928F929F92AF92BF92CF92DF9291
:10476000EF92FF920F931F93CF93DF93CDB7DEB7F6
:10477000CA1BDB0B0FB6F894DEBF0FBECDBF09948A
:104780002A88398848885F846E847D848C849B84E1
:10479000AA84B984C884DF80EE80FD800C811B81EF
:1047A000AA81B981CE0FD11D0FB6F894DEBF0FBE1E
:1047B000CDBFED01089597FB072E16F4009407D0A6
:1047C00077FD09D00E94112407FC05D03EF4909596
:1047D00081959F4F0895709561957F4F0895A1E24F
:1047E0001A2EAA1BBB1BFD010DC0AA1FBB1FEE1F6B
:1047F000FF1FA217B307E407F50720F0A21BB30BB6
:10480000E40BF50B661F771F881F991F1A9469F731
:1048100060957095809590959B01AC01BD01CF018D
:104820000895AA1BBB1B51E107C0AA1FBB1FA617F7
:10483000B70710F0A61BB70B881F991F5A95A9F749
:1048400080959095BC01CD010895EE0FFF1F059056
:10485000F491E02D09945058BB27AA270E944324C5
:104860000C9454230E94462338F00E944D2320F0DC
:1048700039F49F3F19F426F40C9443230EF4E09589
:10488000E7FB0C943D23E92F0E94652358F3BA17E8
:10489000620773078407950720F079F4A6F50C9456
:1048A00087230EF4E0950B2EBA2FA02D0B01B90132
:1048B00090010C01CA01A0011124FF27591B99F096
:1048C000593F50F4503E68F11A16F040A22F232FA2
:1048D000342F4427585FF3CF469537952795A795F2
:1048E000F0405395C9F77EF41F16BA0B620B730B99
:1048F000840BBAF09150A1F0FF0FBB1F661F771F0A
:10490000881FC2F70EC0BA0F621F731F841F48F4BE
:10491000879577956795B795F7959E3F08F0B0CF47
:104920009395880F08F09927EE0F9795879508952E
:104930000E94AC240C9454230E944D2358F00E94F2
:10494000462340F029F45F3F29F00C943D23511198
:104950000C9488230C9443230E94652368F39923C5
:10496000B1F3552391F3951B550BBB27AA2762176B
:104970007307840738F09F5F5F4F220F331F441F78
:10498000AA1FA9F335D00E2E3AF0E0E832D09150AC
:104990005040E695001CCAF72BD0FE2F29D0660F99
:1049A000771F881FBB1F261737074807AB07B0E8DC
:1049B00009F0BB0B802DBF01FF2793585F4F3AF0E2
:1049C0009E3F510578F00C943D230C9488235F3F63
:1049D000E4F3983ED4F3869577956795B795F79568
:1049E0009F5FC9F7880F911D9695879597F9089550
:1049F000E1E0660F771F881FBB1F621773078407EC
:104A0000BA0720F0621B730B840BBA0BEE1F88F7FA
:104A1000E09508950E946D2388F09F5798F0B92F74
:104A20009927B751B0F0E1F0660F771F881F991FE3
:104A30001AF0BA95C9F714C0B13091F00E948723DB
:104A4000B1E008950C948723672F782F8827B85FEB
:104A500039F0B93FCCF3869577956795B395D9F73B
:104A60003EF490958095709561957F4F8F4F9F4F45
:104A700008950E94792590F09F3748F4911116F01F
:104A80000C94882360E070E080E89FEB089526F4A2
:104A90001B16611D711D811D0C9450250C946B25F6
:104AA000882371F4772321F09850872B762F07C045
:104AB000662311F499270DC09051862B70E060E0B9
:104AC0002AF09A95660F771F881FDAF7880F969558
:104AD000879597F908959F3F31F0915020F487957D
:104AE00077956795B795880F911D9695879597F956
:104AF00008950E946D23A0F0BEE7B91788F4BB2784
:104B00009F3860F41616B11D672F782F8827985F9D
:104B1000F7CF869577956795B11D93959639C8F32C
:104B200008950E94AC2208F48FEF08950E94AC22F1
:104B3000880B990B08950F931F93CF93DF938230C7
:104B4000910510F482E090E0E0918C03F0918D03E8
:104B500030E020E0B0E0A0E0309799F42115310575
:104B600009F44AC0281B390B24303105D8F58A8155
:104B70009B816115710589F1FB0193838283FE019D
:104B800011C0408151810281138148175907E0F01B
:104B90004817590799F4109761F012960C931297E1
:104BA00013961C933296CF01DF91CF911F910F91F5
:104BB000089500938C0310938D03F4CF21153105D4
:104BC00051F04217530738F0A901DB019A01BD01EA
:104BD000DF01F801C1CFEF01F9CF90938D038093EE
:104BE0008C03CDCFFE01E20FF31F819391932250EE
:104BF000310939832883D7CF20918A0330918B03E1
:104C0000232B41F420910A0130910B0130938B0347
:104C100020938A0320910801309109012115310563
:104C200041F42DB73EB740910C0150910D01241B6A
:104C3000350BE0918A03F0918B03E217F307A0F4A0
:104C40002E1B3F0B2817390778F0AC014E5F5F4FE2
:104C50002417350748F04E0F5F1F50938B03409386
:104C60008A03819391939FCFF0E0E0E09CCFCF93B4
:104C7000DF930097E9F0FC01329713821282A09132
:104C80008C03B0918D03ED0130E020E01097A1F48A
:104C900020813181820F931F20918A0330918B03F1
:104CA0002817390709F061C0F0938B03E0938A035A
:104CB000DF91CF910895EA01CE17DF07E8F54A8129
:104CC0005B819E0141155105B1F7E901FB83EA8340
:104CD00049915991C40FD51FEC17FD0761F48081EC
:104CE00091810296840F951FE901998388838281BF
:104CF00093819B838A83F0E0E0E012968D919C91F2
:104D000013970097B9F52D913C911197CD0102961B
:104D1000820F931F20918A0330918B032817390744
:104D200039F6309751F510928D0310928C03B093A1
:104D30008B03A0938A03BCCFD383C283408151816C
:104D4000840F951FC817D90761F44E5F5F4F8881A4
:104D50009981480F591F518340838A819B81938396
:104D600082832115310509F0B0CFF0938D03E093D4
:104D70008C039ECFFD01DC01C0CF13821282D7CFFE
:104D8000B0E0A0E0E6ECF6E20C94A6238C010097DC
:104D900051F4CB010E949B258C01C801CDB7DEB731
:104DA000E0E10C94C223FC01E60FF71F9C012250A6
:104DB0003109E217F30708F49DC0D901CD91DC91C8
:104DC0001197C617D70798F0C530D10530F3CE013B
:104DD00004978617970708F3C61BD70B2297C19332
:104DE000D1936D937C93CF010E943726D6CF5B0180
:104DF000AC1ABD0A4C018C0E9D1EA0918C03B09183
:104E00008D03512C412CF12CE12C109731F5809120
:104E10008A0390918B038815990509F05CC04616AA
:104E2000570608F058C08091080190910901009739
:104E300041F48DB79EB740910C0150910D01841B38
:104E4000950BE817F90708F055C0F0938B03E09332
:104E50008A03F90171836083A0CF8D919C91119792
:104E600012966C90129713967C901397A815B9051B
:104E700059F56C0142E0C40ED11CCA14DB0420F1C8
:104E8000AC014A195B09DA011296159780F062822B
:104E9000738251834083D9016D937C93E114F104B3
:104EA00071F0D7011396FC93EE93129776CF22966A
:104EB0008C0F9D1FF90191838083F301EFCFF09355
:104EC0008D03E0938C0369CF4816590608F42C0132
:104ED0007D01D3019ACFCB010E949B257C010097D5
:104EE00049F0AE01B8010E948227C8010E9437260E
:104EF000870153CF10E000E050CF81E090E0F894BC
:104F00000C949927FB01DC0102C001900D924150E5
:104F10005040D8F70895DC0101C06D9341505040D6
:104F2000E0F70895FB01DC0101900D920020E1F70C
:104F3000089515E0C6E4D5E004C0FE010E942524D2
:0C4F40002196C734D107C9F7F894FFCFC1
:104F4C00B806B8060000B14200008E0380000000D5
:104F5C0000005907B906E606A6071707F506090764
:104F6C0000000000E910BC108C157D057E05A91011
:104F7C009A1000000000620CB9068C151C106D090B
:104F8C007D05070FDF0EFB0EEF0E6F0F7D05280A58
:104F9C003615DD082609280E0B0E930D340D6E61A7
:104FAC006E00696E66006F7666000D0A00415554FE
:104FBC004F004D414E55414C00526164696F204683
:104FCC004D004D487A005369673A200025004D6525
:104FDC006D6F3A20004C617A7A6174746900526F7B
:104FEC0073736900452E452E532E542E204E3500DA
:104FFC0035746F2035746120202020202020202043
:06500C00323032330000D7
:00000001FF
